:020000040800F2
:1000000000800020DD1300083114000831140008BE
:1000100031140008311400083114000800000000F9
:100020000000000000000000000000003114000883
:1000300031140008000000003114000831140008D9
:10004000311400083114000831140008311400087C
:10005000311400083114000831140008311400086C
:10006000311400083114000831140008311400085C
:10007000311400083114000831140008311400084C
:10008000311400083114000831140008311400083C
:10009000311400083114000831140008311400082C
:1000A000311400083114000831140008311400081C
:1000B000311400083114000831140008311400080C
:1000C00031140008311400083114000831140008FC
:1000D00031140008311400083114000831140008EC
:1000E00031140008311400083114000831140008DC
:1000F00031140008311400083114000831140008CC
:1001000000000000000000000000000031140008A2
:1001100031140008311400083114000831140008AB
:10012000311400083114000831140008311400089B
:100130003114000831140008000000000000000025
:1001400031140008311400083114000800000000C8
:10015000000000000000000000000000000000009F
:1001600000000000000000003114000831140008F5
:100170003114000800000000000000000000000032
:0801800000000000311400082A
:10018800B0F1904F08B521D03A4B98422AD03A4B5B
:10019800984233D0394B98423CD0394B984245D09D
:1001A800384B98424ED0384B984257D0374B9842EC
:1001B80000D008BD4FF48030012100F08FFC4FF4CF
:1001C80080300021BDE8084000F088BC4FF40030C2
:1001D800012100F083FC4FF400300021BDE8084005
:1001E80000F07CBC4FF48020012100F077FC4FF434
:1001F80080200021BDE8084000F070BC4FF40020CA
:10020800012100F06BFC4FF400200021BDE80840FC
:1002180000F064BC4FF48010012100F05FFC4FF443
:1002280080100021BDE8084000F058BC4FF40010D1
:10023800012100F053FC4FF400100021BDE80840F4
:1002480000F04CBC4FF48000012100F047FC4FF453
:1002580080000021BDE8084000F040BC4FF40000D9
:10026800012100F03BFC4FF400000021BDE80840EC
:1002780000F034BC0004004800080048000C0048A6
:10028800001000480014004800180048001C0048EE
:1002980000222DE9F00F13460E6801274FF00308DE
:1002A80004E00133102B02F1020227D007FA03F40D
:1002B80004EA0605A542F4D10C7904F1FF3CBCF12F
:1002C800010F08FA02FC1CD96FEA0C0C056891F8BA
:1002D80007900CEA05050560056894402C43046006
:1002E800C46808FA02F524EA0505013309FA02F49C
:1002F8002C43102BC46002F10202D7D1BDE8F00FE5
:100308007047D0F808B091F8059091F806A06FEA08
:100318000C0C0CEA0B0BC0F808B0D0F808B009FABE
:1003280002F949EA0B09C0F80890B0F804901FFADE
:1003380089F929EA05058580B0F804900AFA03F5D9
:1003480045EA0905ADB28580C0E700BF00234FF636
:10035800FF7102220160427103718371C37170479A
:1003680041F48033C361C161C361C369C369704724
:10037800038A19420CBF002001207047008A80B20E
:10038800704700BF838A19420CBF002001207047C4
:10039800808A80B2704700BF8161704701857047CD
:1003A8000AB9018570478161704700BF8182704733
:1003B800CB0800EB830001F0070110B48900046A40
:1003C8000F238B4024EA03030362036A5DF8044B9E
:1003D8008A40134303627047114B12491868124A46
:1003E80040F001001860586801405960196821F010
:1003F800847121F480311960196821F48021196011
:10040800596821F4FE015960D96A21F47F5121F01D
:100418003F01D962186B002102401A639960704746
:100428000010024000C0FFF8CCEC000F024B002285
:100438001A701870704700BF02100240034B1A6808
:1004480022F0F80242EAC00018607047001002402B
:10045800014B1860704700BF00004242064B1A6A01
:1004680022F001021A621A6A22F004021A621A6A57
:1004780010431862704700BF00100240044B1A6A0C
:1004880022F018021A621A6A10431862704700BFF5
:1004980000100240014B1860704700BF80044242C0
:1004A800044B5A6822F474125A605A68114308437C
:1004B8005860704700100240014B1860704700BF39
:1004C80060004242034BDA6A22F00F021043D862FE
:1004D800704700BF00100240014B1860704700BF12
:1004E8004C004242034B5A6822F0074242EA00603D
:1004F8005860704700100240034B5A6822F003020C
:1005080010435860704700BF00100240024B586803
:1005180000F00C00704700BF00100240034B5A68FF
:1005280022F0F00210435860704700BF00100240EC
:10053800034B5A6822F4E06210435860704700BFCA
:1005480000100240034B5A6822F4605242EAC0008D
:100558005860704700100240A84B2DE9F0035C6812
:1005680004F00C04042C00F07181082C00F05A816E
:10057800A34B036004B10024A04DA2496A68C2F3EA
:1005880003128F5CFFB223FA07F242606E68C6F36B
:1005980002268E5D22FA06F68660D5F804C0CCF3F2
:1005A800C22C11F80CC05FFA8CFC22FA0CF2C26063
:1005B800ED6AC5F3041505F00F0801EB4808ED06D0
:1005C800B8F810801FFA88F803D5B8F1000F40F08A
:1005D8001B810361894DED6AC5F3442505F00F08B9
:1005E80001EB4801ED06098A89B202D5002940F0DD
:1005F8000F8143618149096BC9065CBF80498161EC
:100608007E4948BF8361096B8D065CBF7C49C16127
:100618007A4948BFC361096B49065CBF78490162E2
:10062800764948BF03620D6BED056BD59C4202D13C
:10063800BC4500F042814262096B704982620D6BD1
:10064800AD056AD59C4202D1BC4500F05381C26217
:10065800096B6A49C2640D6B2D056AD59C4202D1AB
:10066800BC4500F02881096B64490265096B0D04DB
:100678006CD4826561490C6BA40711D00A6B02F037
:100688000302012A00F0E6800A6B02F00302022A44
:1006980000F0F0800A6B02F00302032A01D1584AE5
:1006A8008263564A116B11F4403F56D1C663534AD0
:1006B800116B11F4402F6AD10664504A116B11F482
:1006C800401F7DD146644D4A116B11F4400F00F074
:1006D8009180116B01F44001B1F5800F00F09E800C
:1006E800136B03F44003B3F5000F00F09580136B10
:1006F80003F44003B3F5400F01D1414B8364BDE8D7
:10070800F003704742620D6BED0496D59C4202D10E
:10071800BC4500F0E8808262096B3849C2620D6B03
:100728006D0596D59C4202D1BC4500F0B780C264E5
:10073800096B324902650D6BAD0495D59C4202D117
:10074800BC4500F0A3800265096B92E79C4290D1FA
:10075800BC458ED15D0085658CE7116B01F4403195
:10076800B1F5803F7CD0116B01F44031B1F5003F09
:1007780000F08480126B02F44032B2F5403F04BFAF
:100788001F4AC2631D4A116B11F4402F94D0116B9C
:1007980001F44021B1F5802F60D0116B01F44021A4
:1007A800B1F5002F62D0126B02F44022B2F5402F4F
:1007B80004BF134A0264114A116B11F4401F81D01F
:1007C800116B01F44011B1F5801F45D0116B01F494
:1007D8004011B1F5001F55D0126B02F44012B2F56A
:1007E800401F04BF064A4264044A116B11F4400FCB
:1007F8007FF46FAF8664BDE8F003704700100240D5
:1008080000127A0000000020B4FBF8F50561E1E66B
:10081800B4FBF1F14161EDE64FF400438364BDE8B8
:10082800F00370475A685968C2F38342CE0302F155
:10083800020217D5DC6A314B04F00F040134B3FB14
:10084800F4F402FB04F40460234695E62B4B0360A2
:10085800002491E6836324E7436434E703642CE7C8
:10086800C36324E7264C04FB02F4ECE74FF4004290
:10087800026422E74FF40042826312E74FF4004219
:10088800C26314E74FF4004242641CE75D001D494F
:100898004565096B0F043FF55EAFEAE66500194947
:1008A800C564096B09057FF544AF16490565096BF1
:1008B8008904ECD4D8E66500F7E74FEA4408C0F8A5
:1008C8002480D1F8309019F4805F45460CD18262BB
:1008D800096B89057FF521AF45460A49C562096B51
:1008E8004905DCD4B5E6650006498562096B8905CA
:1008F800F3D412E74FEA4408EEE700BF00127A008B
:1009080000093D0000100240030F064BDA6A14BFCD
:1009180022F4785222F4F872DA62024BDA6A10434F
:10092800D862704700100240030F012B12D00BD37E
:10093800022B04D10A4B1A6B22F040021A63084BAF
:100948001A6B104318637047054B1A6B22F010029C
:100958001A63F4E7024B1A6B22F020021A63EEE7DF
:1009680000100240030F072B0AD8DFE803F0041E2B
:10097800242A300E1318194B1A6B22F480721A634A
:10098800164B1A6B104318637047144B1A6B22F4FA
:1009980000421A63114B1A6B22F080721A630F4BD4
:1009A8001A6B22F000721A63EAE70C4B1A6B22F4F6
:1009B80000721A63E4E7094B1A6B22F480621A6327
:1009C800DEE7064B1A6B22F400621A63D8E7034B82
:1009D8001A6B22F400521A63D2E700BF00100240DB
:1009E800044B1A6B22F480521A631A6B1043186373
:1009F800704700BF00100240030F013B042B09D8C9
:100A0800DFE803F00313191F0D00114B1A6B22F0D6
:100A180003021A630E4B1A6B1043186370470C4B92
:100A28001A6B22F440021A63F4E7094B1A6B22F49A
:100A380040321A63EEE7064B1A6B22F440221A631F
:100A4800E8E7034B1A6B22F440121A63E2E700BF8F
:100A580000100240014B1860704700BFD8004242A6
:100A6800024B1A6A10431862704700BF0010024018
:100A7800014B1860704700BFDC004242014B186010
:100A8800704700BF3C044242014B1860704700BFEA
:100A980040044242044B5A6919B922EA00005861DD
:100AA800704710435861704700100240044B9A6920
:100AB80019B922EA0000986170471043986170479D
:100AC80000100240044BDA6919B922EA0000D86123
:100AD80070471043D861704700100240044B9A6A6F
:100AE80019B922EA0000986270471043986270476B
:100AF80000100240044BDA6819B922EA0000D860F5
:100B080070471043D860704700100240044B1A69C0
:100B180019B922EA0000186170471043186170473C
:100B280000100240044B1A7819B922EA0000187024
:100B3800704710431870704709100240430908D1E4
:100B48000F4B1B6800F01F0023FA00F000F00100B3
:100B58007047012B0BD0042B094B0CBF5B685B6AF9
:100B680000F01F0023FA00F000F001007047044B6A
:100B78001B6A00F01F0023FA00F000F00100704724
:100B88000010024000B583B00023019300E048B98B
:100B98001120FFF7D3FF019B01330193019BB3F5AC
:100BA800A04FF4D11120FFF7C9FF003018BF012072
:100BB80003B05DF804FB00BF024B5A6A42F0807232
:100BC8005A62704700100240034B9B6818420CBFE2
:100BD80000200120704700BF00100240014B187030
:100BE800704700BF0A10024008B5264B984218D03B
:100BF800254B984221D0254B98422AD0244B984225
:100C080033D0244B984200D008BD4FF48010012106
:100C1800FFF77CFF4FF480100021BDE80840FFF784
:100C280075BF4FF480400121FFF764FF4FF4804007
:100C38000021BDE80840FFF75DBF4FF400300121F7
:100C4800FFF764FF4FF400300021BDE80840FFF7CC
:100C58005DBF4FF480200121FFF758FF4FF480203B
:100C68000021BDE80840FFF751BF4FF400200121E3
:100C7800FFF74CFF4FF400200021BDE80840FFF7C4
:100C880045BF00BF00380140004400400048004014
:100C9800004C0040005000400368F0B504460D4683
:100CA80023F001038F68CE68286949686A69236060
:100CB800636823F440533B4363602368314323F460
:100CC800B053014323F00C030B432360A36823F4C0
:100CD8004073134399B0A36001A8FFF73DFC174B7D
:100CE8009C4224D0164B9C4223D0164B9C4222D0C7
:100CF800154B9C420CBF1299139923682A68180453
:100D080048BF4900B1FBF2F302FB1311B1EB520FDC
:100D1800226828BF0133120405D54FF6F0721A4035
:100D2800C3F3420313439BB2A38119B0F0BD0F99DB
:100D3800E3E71099E1E71199DFE700BF00380140C8
:100D48000044004000480040004C004000234FF49D
:100D580016510C220160026143608360C3604361E5
:100D6800704700BF30B491E828008C684268C968B1
:100D78002B4323430B4322F470621343436030BC7C
:100D8800704700BF0023036043608360C3607047FF
:100D9800036819B923F001030360704743F00103A6
:100DA8000360704703681AB923EA010101607047BC
:100DB80019430160704700BF036819B923F4004361
:100DC8000360704743F4004303607047836819B9B0
:100DD80023F400638360704743F4006383607047C3
:100DE800436819B923F400234360704743F4002390
:100DF80043607047436819B923F480234360704700
:100E080043F480234360704743681AB923EA010119
:100E18004160704719434160704700BF436819B982
:100E280023F400434360704743F400434360704732
:100E3800436819B923F400034360704743F400037F
:100E480043607047436903F07F4343614369194333
:100E580041617047038A03F47F430382038A9BB28C
:100E680019430182704700BF036819B923F00203D0
:100E78000360704743F0020303607047836823F4FC
:100E8800401383608368194381607047436819B9C8
:100E980023F480134360704743F480134360704722
:100EA800436823F4C00343604368194341607047B3
:100EB800C1F3080101857047808CC0F308007047B2
:100EC800436823F07F434360436843EA016141601C
:100ED800704700BF036819B923F4005303607047D3
:100EE80043F4005303607047036823F4006303600E
:100EF8000368194301607047436823F01003436097
:100F08004368194341607047436823F020034360F6
:100F18004368194341607047436819B923F4804313
:100F28004360704743F4804343607047836819B94E
:100F380023F008038360704743F008038360704719
:100F4800038ADBB20382038A9BB243EA012101824E
:100F5800704700BF836819B923F020038360704786
:100F680043F0200383607047836819B923F01003A6
:100F78008360704743F0100383607047836823F4ED
:100F880060238360836843EA41418160704700BF02
:100F9800436923F07F434361436943EA0161416147
:100FA800704700BF836823F0040383608368194394
:100FB80081607047836819B923F002038360704722
:100FC80043F0020383607047836819B923F48043B0
:100FD8008360704743F4804383607047836823F4D9
:100FE800004383608368194381607047036823F076
:100FF80078730360036843EA41510160704700BF9A
:10100800036823F4F8130360036843EA01410160AD
:10101800704700BF83681AB923EA010181607047ED
:1010280019438160704700BF836823F400538360CD
:101038008368194381607047CBB2C1F3072110B4AC
:1010480002294FF0010404FA03F30FD0032908BF63
:10105800083004682AB924EA030303605DF8044BE6
:101068007047234303605DF8044B70470430F0E792
:10107800038B22B99BB223EA01010183704719430C
:1010880089B20183704700BF836823F4805383606B
:101098008368194381607047C36919420CBF0020F7
:1010A800012070470162704710B4C1F3072301247F
:1010B800CAB2A34204FA02F215D0022B0CBF43684D
:1010C80083681340C26953B1090C012303FA01F183
:1010D80011420CBF002001205DF8044B70471846F0
:1010E8005DF8044B704703681340EBE7090C0123D4
:1010F80003FA01F10162704780B483B000AF014B7D
:101108007B60FEE78414000880B58AB000AF4FF416
:1011180008100121FFF7BEFC4FF44073BB610323A5
:101128007B7701233B770023FB770023BB7707F10D
:10113800180330481946FFF7ABF84FF40030012187
:10114800FFF7C0FC4FF0904002210722FFF730F96B
:101158004FF0904003210722FFF72AF90C233B6246
:10116800032387F82530022387F82430002387F8E3
:101178002730002387F8263007F120034FF09040EE
:101188001946FFF785F84FF416533B6000237B6040
:101198000023BB600023FB6000237B610C233B61C1
:1011A8003B4615481946FFF777FD13480121FFF71D
:1011B800EFFD10484FF400710122FFF7F1F80D48D8
:1011C8004FF480710122FFF7EBF80B484F21FFF72E
:1011D8006FFE00BF08488021FFF75EFF0346002B23
:1011E800F8D005484B21FFF763FE0123184628373E
:1011F800BD4680BD001000480044004080B500AFE7
:1012080008482021FFF748FF0346002B08D005486F
:10121800FFF752FE034603481946FFF749FEEFE77A
:10122800EEE700BF0044004080B586B000AF0A4B2F
:101238007B600A4BFB600A4BBB60074BBB61022318
:101248003B703B789B0007F11802134453F8143C99
:10125800984703463B70F4E7011100081111000894
:101268000512000880B500AF1E4B1E4AD2F8882030
:1012780042F47002C3F888201B4B1B4A126842F0E4
:1012880001021A60184A184B5968184B0B405360F2
:10129800154A154B1B6823F0847323F480331360BD
:1012A800114B114A126822F480221A600E4B0E4A22
:1012B800526822F4FE025A600B4B0B4AD26A22F0A3
:1012C8000F02DA62084A084B196B094B0B4013638B
:1012D800054B00229A6000F00DF8024B4FF00062B7
:1012E8009A6080BD00ED00E0001002400CC07FF85D
:1012F800CCFC00FF80B483B000AF00237B600023E8
:101308003B60324B314A126842F4A0221A602F4BDC
:101318001B6803F400333B607B6801337B603B68E8
:10132800002B03D17B68B3F5A06FF0D1274B1B6866
:1013380003F40033002B02D001233B6001E00023BB
:101348003B603B68012B3CD1214B12221A601F4B9A
:101358001E4A52685A601D4B1C4A52685A601B4B01
:101368001A4A526842F480625A60184B174A526807
:1013780022F47C125A60154B144A526842F4E8125F
:101388005A60124B114A126842F080721A6000BF0C
:101398000E4B1B6803F00073002BF9D00B4B0B4A64
:1013A800526822F003025A60084B084A526842F019
:1013B80002025A6000BF054B5B6803F00C03082B60
:1013C800F9D10C37BD465DF8047B70470010024028
:1013D80000200240002100F004B80E4B5B58435037
:1013E80004310D480D4B42189A42FFF4F6AF0C4AEF
:1013F80000F003B8002342F8043B0A4B9A42FFF47A
:10140800F9AFFFF72FFF00F011F8FFF70DFFFFF717
:10141800FEBF0000A41400080000002030000020D7
:101428003000002030000020FFF7FEBF70B50F4EDF
:101438000F4D761BB61007D0043D0024013455F833
:10144800043F9847A642F9D10A4E0B4D761B00F08F
:1014580019F8B61008D0043D0024013455F8043FAB
:101468009847A642F9D170BD70BD00BF00000000CA
:10147800000000000000000000000000494C4C453E
:1014880047414C00F8B500BFF8BC08BC9E46704701
:0C149800F8B500BFF8BC08BC9E467047C9
:1014A4000000000001020304010203040607080906
:1014B400010002000400060008000A000C001000ED
:1014C4002000400080000001000000000000000037
:04000005080013DDFF
:00000001FF
